{
  "_format": "hh-sol-artifact-1",
  "contractName": "BBtoken",
  "sourceName": "contracts/BBtoken.sol",
  "abi": [
    {
      "inputs": [
        {
          "internalType": "address",
          "name": "initialOwner",
          "type": "address"
        }
      ],
      "stateMutability": "nonpayable",
      "type": "constructor"
    },
    {
      "anonymous": false,
      "inputs": [
        {
          "indexed": true,
          "internalType": "address",
          "name": "account",
          "type": "address"
        },
        {
          "indexed": true,
          "internalType": "address",
          "name": "operator",
          "type": "address"
        },
        {
          "indexed": false,
          "internalType": "bool",
          "name": "approved",
          "type": "bool"
        }
      ],
      "name": "ApprovalForAll",
      "type": "event"
    },
    {
      "anonymous": false,
      "inputs": [
        {
          "indexed": true,
          "internalType": "address",
          "name": "previousOwner",
          "type": "address"
        },
        {
          "indexed": true,
          "internalType": "address",
          "name": "newOwner",
          "type": "address"
        }
      ],
      "name": "OwnershipTransferred",
      "type": "event"
    },
    {
      "anonymous": false,
      "inputs": [
        {
          "indexed": true,
          "internalType": "address",
          "name": "operator",
          "type": "address"
        },
        {
          "indexed": true,
          "internalType": "address",
          "name": "from",
          "type": "address"
        },
        {
          "indexed": true,
          "internalType": "address",
          "name": "to",
          "type": "address"
        },
        {
          "indexed": false,
          "internalType": "uint256[]",
          "name": "ids",
          "type": "uint256[]"
        },
        {
          "indexed": false,
          "internalType": "uint256[]",
          "name": "values",
          "type": "uint256[]"
        }
      ],
      "name": "TransferBatch",
      "type": "event"
    },
    {
      "anonymous": false,
      "inputs": [
        {
          "indexed": true,
          "internalType": "address",
          "name": "operator",
          "type": "address"
        },
        {
          "indexed": true,
          "internalType": "address",
          "name": "from",
          "type": "address"
        },
        {
          "indexed": true,
          "internalType": "address",
          "name": "to",
          "type": "address"
        },
        {
          "indexed": false,
          "internalType": "uint256",
          "name": "id",
          "type": "uint256"
        },
        {
          "indexed": false,
          "internalType": "uint256",
          "name": "value",
          "type": "uint256"
        }
      ],
      "name": "TransferSingle",
      "type": "event"
    },
    {
      "anonymous": false,
      "inputs": [
        {
          "indexed": false,
          "internalType": "string",
          "name": "value",
          "type": "string"
        },
        {
          "indexed": true,
          "internalType": "uint256",
          "name": "id",
          "type": "uint256"
        }
      ],
      "name": "URI",
      "type": "event"
    },
    {
      "inputs": [
        {
          "internalType": "address",
          "name": "account",
          "type": "address"
        },
        {
          "internalType": "uint256",
          "name": "id",
          "type": "uint256"
        }
      ],
      "name": "balanceOf",
      "outputs": [
        {
          "internalType": "uint256",
          "name": "",
          "type": "uint256"
        }
      ],
      "stateMutability": "view",
      "type": "function"
    },
    {
      "inputs": [
        {
          "internalType": "address[]",
          "name": "accounts",
          "type": "address[]"
        },
        {
          "internalType": "uint256[]",
          "name": "ids",
          "type": "uint256[]"
        }
      ],
      "name": "balanceOfBatch",
      "outputs": [
        {
          "internalType": "uint256[]",
          "name": "",
          "type": "uint256[]"
        }
      ],
      "stateMutability": "view",
      "type": "function"
    },
    {
      "inputs": [
        {
          "internalType": "uint256",
          "name": "tokenId",
          "type": "uint256"
        }
      ],
      "name": "getTotalSellingPrice",
      "outputs": [
        {
          "internalType": "uint256",
          "name": "",
          "type": "uint256"
        }
      ],
      "stateMutability": "view",
      "type": "function"
    },
    {
      "inputs": [
        {
          "internalType": "uint256",
          "name": "tokenId",
          "type": "uint256"
        }
      ],
      "name": "getTotalSupply",
      "outputs": [
        {
          "internalType": "uint256",
          "name": "",
          "type": "uint256"
        }
      ],
      "stateMutability": "view",
      "type": "function"
    },
    {
      "inputs": [
        {
          "internalType": "address",
          "name": "account",
          "type": "address"
        },
        {
          "internalType": "address",
          "name": "operator",
          "type": "address"
        }
      ],
      "name": "isApprovedForAll",
      "outputs": [
        {
          "internalType": "bool",
          "name": "",
          "type": "bool"
        }
      ],
      "stateMutability": "view",
      "type": "function"
    },
    {
      "inputs": [
        {
          "internalType": "uint256",
          "name": "id",
          "type": "uint256"
        },
        {
          "internalType": "uint256",
          "name": "amount",
          "type": "uint256"
        }
      ],
      "name": "mint",
      "outputs": [],
      "stateMutability": "payable",
      "type": "function"
    },
    {
      "inputs": [],
      "name": "owner",
      "outputs": [
        {
          "internalType": "address",
          "name": "",
          "type": "address"
        }
      ],
      "stateMutability": "view",
      "type": "function"
    },
    {
      "inputs": [
        {
          "internalType": "uint256",
          "name": "tokenId",
          "type": "uint256"
        },
        {
          "internalType": "uint256",
          "name": "amount",
          "type": "uint256"
        }
      ],
      "name": "purchaseTokens",
      "outputs": [],
      "stateMutability": "payable",
      "type": "function"
    },
    {
      "inputs": [],
      "name": "renounceOwnership",
      "outputs": [],
      "stateMutability": "nonpayable",
      "type": "function"
    },
    {
      "inputs": [
        {
          "internalType": "address",
          "name": "from",
          "type": "address"
        },
        {
          "internalType": "address",
          "name": "to",
          "type": "address"
        },
        {
          "internalType": "uint256[]",
          "name": "ids",
          "type": "uint256[]"
        },
        {
          "internalType": "uint256[]",
          "name": "amounts",
          "type": "uint256[]"
        },
        {
          "internalType": "bytes",
          "name": "data",
          "type": "bytes"
        }
      ],
      "name": "safeBatchTransferFrom",
      "outputs": [],
      "stateMutability": "nonpayable",
      "type": "function"
    },
    {
      "inputs": [
        {
          "internalType": "address",
          "name": "from",
          "type": "address"
        },
        {
          "internalType": "address",
          "name": "to",
          "type": "address"
        },
        {
          "internalType": "uint256",
          "name": "id",
          "type": "uint256"
        },
        {
          "internalType": "uint256",
          "name": "amount",
          "type": "uint256"
        },
        {
          "internalType": "bytes",
          "name": "data",
          "type": "bytes"
        }
      ],
      "name": "safeTransferFrom",
      "outputs": [],
      "stateMutability": "nonpayable",
      "type": "function"
    },
    {
      "inputs": [
        {
          "internalType": "address",
          "name": "operator",
          "type": "address"
        },
        {
          "internalType": "bool",
          "name": "approved",
          "type": "bool"
        }
      ],
      "name": "setApprovalForAll",
      "outputs": [],
      "stateMutability": "nonpayable",
      "type": "function"
    },
    {
      "inputs": [
        {
          "internalType": "uint256",
          "name": "tokenId",
          "type": "uint256"
        },
        {
          "internalType": "uint256",
          "name": "sellingPrice",
          "type": "uint256"
        }
      ],
      "name": "setSellingPrice",
      "outputs": [],
      "stateMutability": "nonpayable",
      "type": "function"
    },
    {
      "inputs": [
        {
          "internalType": "string",
          "name": "newuri",
          "type": "string"
        }
      ],
      "name": "setURI",
      "outputs": [],
      "stateMutability": "nonpayable",
      "type": "function"
    },
    {
      "inputs": [
        {
          "internalType": "uint256",
          "name": "tokenId",
          "type": "uint256"
        },
        {
          "internalType": "uint256",
          "name": "supply",
          "type": "uint256"
        }
      ],
      "name": "settotalsupply",
      "outputs": [],
      "stateMutability": "nonpayable",
      "type": "function"
    },
    {
      "inputs": [
        {
          "internalType": "bytes4",
          "name": "interfaceId",
          "type": "bytes4"
        }
      ],
      "name": "supportsInterface",
      "outputs": [
        {
          "internalType": "bool",
          "name": "",
          "type": "bool"
        }
      ],
      "stateMutability": "view",
      "type": "function"
    },
    {
      "inputs": [
        {
          "internalType": "address",
          "name": "newOwner",
          "type": "address"
        }
      ],
      "name": "transferOwnership",
      "outputs": [],
      "stateMutability": "nonpayable",
      "type": "function"
    },
    {
      "inputs": [
        {
          "internalType": "uint256",
          "name": "",
          "type": "uint256"
        }
      ],
      "name": "uri",
      "outputs": [
        {
          "internalType": "string",
          "name": "",
          "type": "string"
        }
      ],
      "stateMutability": "view",
      "type": "function"
    }
  ],
  "bytecode": "0x60806040523480156200001157600080fd5b506040516200380f3803806200380f8339818101604052810190620000379190620002aa565b6040518060400160405280600381526020017f42425400000000000000000000000000000000000000000000000000000000008152506200007e81620000a660201b60201c565b506200009f62000093620000c260201b60201c565b620000ca60201b60201c565b5062000341565b8060029080519060200190620000be92919062000190565b5050565b600033905090565b6000600360009054906101000a900473ffffffffffffffffffffffffffffffffffffffff16905081600360006101000a81548173ffffffffffffffffffffffffffffffffffffffff021916908373ffffffffffffffffffffffffffffffffffffffff1602179055508173ffffffffffffffffffffffffffffffffffffffff168173ffffffffffffffffffffffffffffffffffffffff167f8be0079c531659141344cd1fd0a4f28419497f9722a3daafe3b4186f6b6457e060405160405180910390a35050565b8280546200019e906200030b565b90600052602060002090601f016020900481019282620001c257600085556200020e565b82601f10620001dd57805160ff19168380011785556200020e565b828001600101855582156200020e579182015b828111156200020d578251825591602001919060010190620001f0565b5b5090506200021d919062000221565b5090565b5b808211156200023c57600081600090555060010162000222565b5090565b600080fd5b600073ffffffffffffffffffffffffffffffffffffffff82169050919050565b6000620002728262000245565b9050919050565b620002848162000265565b81146200029057600080fd5b50565b600081519050620002a48162000279565b92915050565b600060208284031215620002c357620002c262000240565b5b6000620002d38482850162000293565b91505092915050565b7f4e487b7100000000000000000000000000000000000000000000000000000000600052602260045260246000fd5b600060028204905060018216806200032457607f821691505b602082108114156200033b576200033a620002dc565b5b50919050565b6134be80620003516000396000f3fe6080604052600436106101085760003560e01c806364b00d5d1161009557806392ab723e1161006457806392ab723e1461035c578063a22cb46514610399578063e985e9c5146103c2578063f242432a146103ff578063f2fde38b1461042857610108565b806364b00d5d146102d5578063715018a6146102fe5780638bf0af3e146103155780638da5cb5b1461033157610108565b80631b2ef1ca116100dc5780631b2ef1ca146101ed5780631e154d681461020957806322370fc1146102465780632eb2c2d61461026f5780634e1273f41461029857610108565b8062fdd58e1461010d57806301ffc9a71461014a57806302fe5305146101875780630e89341c146101b0575b600080fd5b34801561011957600080fd5b50610134600480360381019061012f9190611e04565b610451565b6040516101419190611e53565b60405180910390f35b34801561015657600080fd5b50610171600480360381019061016c9190611ec6565b61051a565b60405161017e9190611f0e565b60405180910390f35b34801561019357600080fd5b506101ae60048036038101906101a9919061206f565b6105fc565b005b3480156101bc57600080fd5b506101d760048036038101906101d291906120b8565b610610565b6040516101e4919061216d565b60405180910390f35b6102076004803603810190610202919061218f565b6106a4565b005b34801561021557600080fd5b50610230600480360381019061022b91906120b8565b61084f565b60405161023d9190611e53565b60405180910390f35b34801561025257600080fd5b5061026d6004803603810190610268919061218f565b61088a565b005b34801561027b57600080fd5b5061029660048036038101906102919190612338565b6108ae565b005b3480156102a457600080fd5b506102bf60048036038101906102ba91906124ca565b61094f565b6040516102cc9190612600565b60405180910390f35b3480156102e157600080fd5b506102fc60048036038101906102f7919061218f565b610a68565b005b34801561030a57600080fd5b50610313610a8c565b005b61032f600480360381019061032a919061218f565b610aa0565b005b34801561033d57600080fd5b50610346610b7c565b6040516103539190612631565b60405180910390f35b34801561036857600080fd5b50610383600480360381019061037e91906120b8565b610ba6565b6040516103909190611e53565b60405180910390f35b3480156103a557600080fd5b506103c060048036038101906103bb9190612678565b610bc3565b005b3480156103ce57600080fd5b506103e960048036038101906103e491906126b8565b610bd9565b6040516103f69190611f0e565b60405180910390f35b34801561040b57600080fd5b50610426600480360381019061042191906126f8565b610c6d565b005b34801561043457600080fd5b5061044f600480360381019061044a919061278f565b610d0e565b005b60008073ffffffffffffffffffffffffffffffffffffffff168373ffffffffffffffffffffffffffffffffffffffff1614156104c2576040517f08c379a00000000000000000000000000000000000000000000000000000000081526004016104b99061282e565b60405180910390fd5b60008083815260200190815260200160002060008473ffffffffffffffffffffffffffffffffffffffff1673ffffffffffffffffffffffffffffffffffffffff16815260200190815260200160002054905092915050565b60007fd9b67a26000000000000000000000000000000000000000000000000000000007bffffffffffffffffffffffffffffffffffffffffffffffffffffffff1916827bffffffffffffffffffffffffffffffffffffffffffffffffffffffff191614806105e557507f0e89341c000000000000000000000000000000000000000000000000000000007bffffffffffffffffffffffffffffffffffffffffffffffffffffffff1916827bffffffffffffffffffffffffffffffffffffffffffffffffffffffff1916145b806105f557506105f482610d92565b5b9050919050565b610604610dfc565b61060d81610e7a565b50565b60606002805461061f9061287d565b80601f016020809104026020016040519081016040528092919081815260200182805461064b9061287d565b80156106985780601f1061066d57610100808354040283529160200191610698565b820191906000526020600020905b81548152906001019060200180831161067b57829003601f168201915b50505050509050919050565b6106ac610dfc565b60006004600084815260200190815260200160002054905060008111610707576040517f08c379a00000000000000000000000000000000000000000000000000000000081526004016106fe906128fb565b60405180910390fd5b600560008481526020019081526020016000205482111561075d576040517f08c379a000000000000000000000000000000000000000000000000000000000815260040161075490612967565b60405180910390fd5b6001828261076b91906129b6565b6107759190612a10565b3410156107b7576040517f08c379a00000000000000000000000000000000000000000000000000000000081526004016107ae90612ab2565b60405180910390fd5b6107d233848460405180602001604052806000815250610e94565b816005600085815260200190815260200160002060008282546107f59190612ad2565b92505081905550610804610b7c565b73ffffffffffffffffffffffffffffffffffffffff166108fc349081150290604051600060405180830381858888f19350505050158015610849573d6000803e3d6000fd5b50505050565b60006005600083815260200190815260200160002054600460008481526020019081526020016000205461088391906129b6565b9050919050565b610892610dfc565b8060056000848152602001908152602001600020819055505050565b6108b6611045565b73ffffffffffffffffffffffffffffffffffffffff168573ffffffffffffffffffffffffffffffffffffffff1614806108fc57506108fb856108f6611045565b610bd9565b5b61093b576040517f08c379a000000000000000000000000000000000000000000000000000000000815260040161093290612b78565b60405180910390fd5b610948858585858561104d565b5050505050565b60608151835114610995576040517f08c379a000000000000000000000000000000000000000000000000000000000815260040161098c90612c0a565b60405180910390fd5b6000835167ffffffffffffffff8111156109b2576109b1611f44565b5b6040519080825280602002602001820160405280156109e05781602001602082028036833780820191505090505b50905060005b8451811015610a5d57610a2d858281518110610a0557610a04612c2a565b5b6020026020010151858381518110610a2057610a1f612c2a565b5b6020026020010151610451565b828281518110610a4057610a3f612c2a565b5b60200260200101818152505080610a5690612c59565b90506109e6565b508091505092915050565b610a70610dfc565b8060046000848152602001908152602001600020819055505050565b610a94610dfc565b610a9e600061136f565b565b6000600460008481526020019081526020016000205490508181610ac491906129b6565b341015610b06576040517f08c379a0000000000000000000000000000000000000000000000000000000008152600401610afd90612cee565b60405180910390fd5b610b29610b11610b7c565b33858560405180602001604052806000815250611435565b610b31610b7c565b73ffffffffffffffffffffffffffffffffffffffff166108fc349081150290604051600060405180830381858888f19350505050158015610b76573d6000803e3d6000fd5b50505050565b6000600360009054906101000a900473ffffffffffffffffffffffffffffffffffffffff16905090565b600060056000838152602001908152602001600020549050919050565b610bd5610bce611045565b83836116d1565b5050565b6000600160008473ffffffffffffffffffffffffffffffffffffffff1673ffffffffffffffffffffffffffffffffffffffff16815260200190815260200160002060008373ffffffffffffffffffffffffffffffffffffffff1673ffffffffffffffffffffffffffffffffffffffff16815260200190815260200160002060009054906101000a900460ff16905092915050565b610c75611045565b73ffffffffffffffffffffffffffffffffffffffff168573ffffffffffffffffffffffffffffffffffffffff161480610cbb5750610cba85610cb5611045565b610bd9565b5b610cfa576040517f08c379a0000000000000000000000000000000000000000000000000000000008152600401610cf190612b78565b60405180910390fd5b610d078585858585611435565b5050505050565b610d16610dfc565b600073ffffffffffffffffffffffffffffffffffffffff168173ffffffffffffffffffffffffffffffffffffffff161415610d86576040517f08c379a0000000000000000000000000000000000000000000000000000000008152600401610d7d90612d80565b60405180910390fd5b610d8f8161136f565b50565b60007f01ffc9a7000000000000000000000000000000000000000000000000000000007bffffffffffffffffffffffffffffffffffffffffffffffffffffffff1916827bffffffffffffffffffffffffffffffffffffffffffffffffffffffff1916149050919050565b610e04611045565b73ffffffffffffffffffffffffffffffffffffffff16610e22610b7c565b73ffffffffffffffffffffffffffffffffffffffff1614610e78576040517f08c379a0000000000000000000000000000000000000000000000000000000008152600401610e6f90612dec565b60405180910390fd5b565b8060029080519060200190610e90929190611cb9565b5050565b600073ffffffffffffffffffffffffffffffffffffffff168473ffffffffffffffffffffffffffffffffffffffff161415610f04576040517f08c379a0000000000000000000000000000000000000000000000000000000008152600401610efb90612e7e565b60405180910390fd5b6000610f0e611045565b90506000610f1b8561183e565b90506000610f288561183e565b9050610f39836000898585896118b8565b8460008088815260200190815260200160002060008973ffffffffffffffffffffffffffffffffffffffff1673ffffffffffffffffffffffffffffffffffffffff1681526020019081526020016000206000828254610f989190612a10565b925050819055508673ffffffffffffffffffffffffffffffffffffffff16600073ffffffffffffffffffffffffffffffffffffffff168473ffffffffffffffffffffffffffffffffffffffff167fc3d58168c5ae7397731d063d5bbf3d657854427343f4c083240f7aacaa2d0f628989604051611016929190612e9e565b60405180910390a461102d836000898585896118c0565b61103c836000898989896118c8565b50505050505050565b600033905090565b8151835114611091576040517f08c379a000000000000000000000000000000000000000000000000000000000815260040161108890612f39565b60405180910390fd5b600073ffffffffffffffffffffffffffffffffffffffff168473ffffffffffffffffffffffffffffffffffffffff161415611101576040517f08c379a00000000000000000000000000000000000000000000000000000000081526004016110f890612fcb565b60405180910390fd5b600061110b611045565b905061111b8187878787876118b8565b60005b84518110156112cc57600085828151811061113c5761113b612c2a565b5b60200260200101519050600085838151811061115b5761115a612c2a565b5b60200260200101519050600080600084815260200190815260200160002060008b73ffffffffffffffffffffffffffffffffffffffff1673ffffffffffffffffffffffffffffffffffffffff168152602001908152602001600020549050818110156111fc576040517f08c379a00000000000000000000000000000000000000000000000000000000081526004016111f39061305d565b60405180910390fd5b81810360008085815260200190815260200160002060008c73ffffffffffffffffffffffffffffffffffffffff1673ffffffffffffffffffffffffffffffffffffffff168152602001908152602001600020819055508160008085815260200190815260200160002060008b73ffffffffffffffffffffffffffffffffffffffff1673ffffffffffffffffffffffffffffffffffffffff16815260200190815260200160002060008282546112b19190612a10565b92505081905550505050806112c590612c59565b905061111e565b508473ffffffffffffffffffffffffffffffffffffffff168673ffffffffffffffffffffffffffffffffffffffff168273ffffffffffffffffffffffffffffffffffffffff167f4a39dc06d4c0dbc64b70af90fd698a233a518aa5d07e595d983b8c0526c8f7fb878760405161134392919061307d565b60405180910390a46113598187878787876118c0565b611367818787878787611aaf565b505050505050565b6000600360009054906101000a900473ffffffffffffffffffffffffffffffffffffffff16905081600360006101000a81548173ffffffffffffffffffffffffffffffffffffffff021916908373ffffffffffffffffffffffffffffffffffffffff1602179055508173ffffffffffffffffffffffffffffffffffffffff168173ffffffffffffffffffffffffffffffffffffffff167f8be0079c531659141344cd1fd0a4f28419497f9722a3daafe3b4186f6b6457e060405160405180910390a35050565b600073ffffffffffffffffffffffffffffffffffffffff168473ffffffffffffffffffffffffffffffffffffffff1614156114a5576040517f08c379a000000000000000000000000000000000000000000000000000000000815260040161149c90612fcb565b60405180910390fd5b60006114af611045565b905060006114bc8561183e565b905060006114c98561183e565b90506114d98389898585896118b8565b600080600088815260200190815260200160002060008a73ffffffffffffffffffffffffffffffffffffffff1673ffffffffffffffffffffffffffffffffffffffff16815260200190815260200160002054905085811015611570576040517f08c379a00000000000000000000000000000000000000000000000000000000081526004016115679061305d565b60405180910390fd5b85810360008089815260200190815260200160002060008b73ffffffffffffffffffffffffffffffffffffffff1673ffffffffffffffffffffffffffffffffffffffff168152602001908152602001600020819055508560008089815260200190815260200160002060008a73ffffffffffffffffffffffffffffffffffffffff1673ffffffffffffffffffffffffffffffffffffffff16815260200190815260200160002060008282546116259190612a10565b925050819055508773ffffffffffffffffffffffffffffffffffffffff168973ffffffffffffffffffffffffffffffffffffffff168573ffffffffffffffffffffffffffffffffffffffff167fc3d58168c5ae7397731d063d5bbf3d657854427343f4c083240f7aacaa2d0f628a8a6040516116a2929190612e9e565b60405180910390a46116b8848a8a86868a6118c0565b6116c6848a8a8a8a8a6118c8565b505050505050505050565b8173ffffffffffffffffffffffffffffffffffffffff168373ffffffffffffffffffffffffffffffffffffffff161415611740576040517f08c379a000000000000000000000000000000000000000000000000000000000815260040161173790613126565b60405180910390fd5b80600160008573ffffffffffffffffffffffffffffffffffffffff1673ffffffffffffffffffffffffffffffffffffffff16815260200190815260200160002060008473ffffffffffffffffffffffffffffffffffffffff1673ffffffffffffffffffffffffffffffffffffffff16815260200190815260200160002060006101000a81548160ff0219169083151502179055508173ffffffffffffffffffffffffffffffffffffffff168373ffffffffffffffffffffffffffffffffffffffff167f17307eab39ab6107e8899845ad3d59bd9653f200f220920489ca2b5937696c31836040516118319190611f0e565b60405180910390a3505050565b60606000600167ffffffffffffffff81111561185d5761185c611f44565b5b60405190808252806020026020018201604052801561188b5781602001602082028036833780820191505090505b50905082816000815181106118a3576118a2612c2a565b5b60200260200101818152505080915050919050565b505050505050565b505050505050565b6118e78473ffffffffffffffffffffffffffffffffffffffff16611c96565b15611aa7578373ffffffffffffffffffffffffffffffffffffffff1663f23a6e6187878686866040518663ffffffff1660e01b815260040161192d95949392919061319b565b602060405180830381600087803b15801561194757600080fd5b505af192505050801561197857506040513d601f19601f82011682018060405250810190611975919061320a565b60015b611a1e57611984613244565b806308c379a014156119e15750611999613266565b806119a457506119e3565b806040517f08c379a00000000000000000000000000000000000000000000000000000000081526004016119d8919061216d565b60405180910390fd5b505b6040517f08c379a0000000000000000000000000000000000000000000000000000000008152600401611a159061336e565b60405180910390fd5b63f23a6e6160e01b7bffffffffffffffffffffffffffffffffffffffffffffffffffffffff1916817bffffffffffffffffffffffffffffffffffffffffffffffffffffffff191614611aa5576040517f08c379a0000000000000000000000000000000000000000000000000000000008152600401611a9c90613400565b60405180910390fd5b505b505050505050565b611ace8473ffffffffffffffffffffffffffffffffffffffff16611c96565b15611c8e578373ffffffffffffffffffffffffffffffffffffffff1663bc197c8187878686866040518663ffffffff1660e01b8152600401611b14959493929190613420565b602060405180830381600087803b158015611b2e57600080fd5b505af1925050508015611b5f57506040513d601f19601f82011682018060405250810190611b5c919061320a565b60015b611c0557611b6b613244565b806308c379a01415611bc85750611b80613266565b80611b8b5750611bca565b806040517f08c379a0000000000000000000000000000000000000000000000000000000008152600401611bbf919061216d565b60405180910390fd5b505b6040517f08c379a0000000000000000000000000000000000000000000000000000000008152600401611bfc9061336e565b60405180910390fd5b63bc197c8160e01b7bffffffffffffffffffffffffffffffffffffffffffffffffffffffff1916817bffffffffffffffffffffffffffffffffffffffffffffffffffffffff191614611c8c576040517f08c379a0000000000000000000000000000000000000000000000000000000008152600401611c8390613400565b60405180910390fd5b505b505050505050565b6000808273ffffffffffffffffffffffffffffffffffffffff163b119050919050565b828054611cc59061287d565b90600052602060002090601f016020900481019282611ce75760008555611d2e565b82601f10611d0057805160ff1916838001178555611d2e565b82800160010185558215611d2e579182015b82811115611d2d578251825591602001919060010190611d12565b5b509050611d3b9190611d3f565b5090565b5b80821115611d58576000816000905550600101611d40565b5090565b6000604051905090565b600080fd5b600080fd5b600073ffffffffffffffffffffffffffffffffffffffff82169050919050565b6000611d9b82611d70565b9050919050565b611dab81611d90565b8114611db657600080fd5b50565b600081359050611dc881611da2565b92915050565b6000819050919050565b611de181611dce565b8114611dec57600080fd5b50565b600081359050611dfe81611dd8565b92915050565b60008060408385031215611e1b57611e1a611d66565b5b6000611e2985828601611db9565b9250506020611e3a85828601611def565b9150509250929050565b611e4d81611dce565b82525050565b6000602082019050611e686000830184611e44565b92915050565b60007fffffffff0000000000000000000000000000000000000000000000000000000082169050919050565b611ea381611e6e565b8114611eae57600080fd5b50565b600081359050611ec081611e9a565b92915050565b600060208284031215611edc57611edb611d66565b5b6000611eea84828501611eb1565b91505092915050565b60008115159050919050565b611f0881611ef3565b82525050565b6000602082019050611f236000830184611eff565b92915050565b600080fd5b600080fd5b6000601f19601f8301169050919050565b7f4e487b7100000000000000000000000000000000000000000000000000000000600052604160045260246000fd5b611f7c82611f33565b810181811067ffffffffffffffff82111715611f9b57611f9a611f44565b5b80604052505050565b6000611fae611d5c565b9050611fba8282611f73565b919050565b600067ffffffffffffffff821115611fda57611fd9611f44565b5b611fe382611f33565b9050602081019050919050565b82818337600083830152505050565b600061201261200d84611fbf565b611fa4565b90508281526020810184848401111561202e5761202d611f2e565b5b612039848285611ff0565b509392505050565b600082601f83011261205657612055611f29565b5b8135612066848260208601611fff565b91505092915050565b60006020828403121561208557612084611d66565b5b600082013567ffffffffffffffff8111156120a3576120a2611d6b565b5b6120af84828501612041565b91505092915050565b6000602082840312156120ce576120cd611d66565b5b60006120dc84828501611def565b91505092915050565b600081519050919050565b600082825260208201905092915050565b60005b8381101561211f578082015181840152602081019050612104565b8381111561212e576000848401525b50505050565b600061213f826120e5565b61214981856120f0565b9350612159818560208601612101565b61216281611f33565b840191505092915050565b600060208201905081810360008301526121878184612134565b905092915050565b600080604083850312156121a6576121a5611d66565b5b60006121b485828601611def565b92505060206121c585828601611def565b9150509250929050565b600067ffffffffffffffff8211156121ea576121e9611f44565b5b602082029050602081019050919050565b600080fd5b600061221361220e846121cf565b611fa4565b90508083825260208201905060208402830185811115612236576122356121fb565b5b835b8181101561225f578061224b8882611def565b845260208401935050602081019050612238565b5050509392505050565b600082601f83011261227e5761227d611f29565b5b813561228e848260208601612200565b91505092915050565b600067ffffffffffffffff8211156122b2576122b1611f44565b5b6122bb82611f33565b9050602081019050919050565b60006122db6122d684612297565b611fa4565b9050828152602081018484840111156122f7576122f6611f2e565b5b612302848285611ff0565b509392505050565b600082601f83011261231f5761231e611f29565b5b813561232f8482602086016122c8565b91505092915050565b600080600080600060a0868803121561235457612353611d66565b5b600061236288828901611db9565b955050602061237388828901611db9565b945050604086013567ffffffffffffffff81111561239457612393611d6b565b5b6123a088828901612269565b935050606086013567ffffffffffffffff8111156123c1576123c0611d6b565b5b6123cd88828901612269565b925050608086013567ffffffffffffffff8111156123ee576123ed611d6b565b5b6123fa8882890161230a565b9150509295509295909350565b600067ffffffffffffffff82111561242257612421611f44565b5b602082029050602081019050919050565b600061244661244184612407565b611fa4565b90508083825260208201905060208402830185811115612469576124686121fb565b5b835b81811015612492578061247e8882611db9565b84526020840193505060208101905061246b565b5050509392505050565b600082601f8301126124b1576124b0611f29565b5b81356124c1848260208601612433565b91505092915050565b600080604083850312156124e1576124e0611d66565b5b600083013567ffffffffffffffff8111156124ff576124fe611d6b565b5b61250b8582860161249c565b925050602083013567ffffffffffffffff81111561252c5761252b611d6b565b5b61253885828601612269565b9150509250929050565b600081519050919050565b600082825260208201905092915050565b6000819050602082019050919050565b61257781611dce565b82525050565b6000612589838361256e565b60208301905092915050565b6000602082019050919050565b60006125ad82612542565b6125b7818561254d565b93506125c28361255e565b8060005b838110156125f35781516125da888261257d565b97506125e583612595565b9250506001810190506125c6565b5085935050505092915050565b6000602082019050818103600083015261261a81846125a2565b905092915050565b61262b81611d90565b82525050565b60006020820190506126466000830184612622565b92915050565b61265581611ef3565b811461266057600080fd5b50565b6000813590506126728161264c565b92915050565b6000806040838503121561268f5761268e611d66565b5b600061269d85828601611db9565b92505060206126ae85828601612663565b9150509250929050565b600080604083850312156126cf576126ce611d66565b5b60006126dd85828601611db9565b92505060206126ee85828601611db9565b9150509250929050565b600080600080600060a0868803121561271457612713611d66565b5b600061272288828901611db9565b955050602061273388828901611db9565b945050604061274488828901611def565b935050606061275588828901611def565b925050608086013567ffffffffffffffff81111561277657612775611d6b565b5b6127828882890161230a565b9150509295509295909350565b6000602082840312156127a5576127a4611d66565b5b60006127b384828501611db9565b91505092915050565b7f455243313135353a2061646472657373207a65726f206973206e6f742061207660008201527f616c6964206f776e657200000000000000000000000000000000000000000000602082015250565b6000612818602a836120f0565b9150612823826127bc565b604082019050919050565b600060208201905081810360008301526128478161280b565b9050919050565b7f4e487b7100000000000000000000000000000000000000000000000000000000600052602260045260246000fd5b6000600282049050600182168061289557607f821691505b602082108114156128a9576128a861284e565b5b50919050565b7f53656c6c696e67207072696365206e6f74207365740000000000000000000000600082015250565b60006128e56015836120f0565b91506128f0826128af565b602082019050919050565b60006020820190508181036000830152612914816128d8565b9050919050565b7f4e6f7420656e6f75676820746f6b656e7320617661696c61626c650000000000600082015250565b6000612951601b836120f0565b915061295c8261291b565b602082019050919050565b6000602082019050818103600083015261298081612944565b9050919050565b7f4e487b7100000000000000000000000000000000000000000000000000000000600052601160045260246000fd5b60006129c182611dce565b91506129cc83611dce565b9250817fffffffffffffffffffffffffffffffffffffffffffffffffffffffffffffffff0483118215151615612a0557612a04612987565b5b828202905092915050565b6000612a1b82611dce565b9150612a2683611dce565b9250827fffffffffffffffffffffffffffffffffffffffffffffffffffffffffffffffff03821115612a5b57612a5a612987565b5b828201905092915050565b7f496e73756666696369656e742066756e64732073656e74000000000000000000600082015250565b6000612a9c6017836120f0565b9150612aa782612a66565b602082019050919050565b60006020820190508181036000830152612acb81612a8f565b9050919050565b6000612add82611dce565b9150612ae883611dce565b925082821015612afb57612afa612987565b5b828203905092915050565b7f455243313135353a2063616c6c6572206973206e6f7420746f6b656e206f776e60008201527f6572206f7220617070726f766564000000000000000000000000000000000000602082015250565b6000612b62602e836120f0565b9150612b6d82612b06565b604082019050919050565b60006020820190508181036000830152612b9181612b55565b9050919050565b7f455243313135353a206163636f756e747320616e6420696473206c656e67746860008201527f206d69736d617463680000000000000000000000000000000000000000000000602082015250565b6000612bf46029836120f0565b9150612bff82612b98565b604082019050919050565b60006020820190508181036000830152612c2381612be7565b9050919050565b7f4e487b7100000000000000000000000000000000000000000000000000000000600052603260045260246000fd5b6000612c6482611dce565b91507fffffffffffffffffffffffffffffffffffffffffffffffffffffffffffffffff821415612c9757612c96612987565b5b600182019050919050565b7f496e636f7272656374207061796d656e7420616d6f756e740000000000000000600082015250565b6000612cd86018836120f0565b9150612ce382612ca2565b602082019050919050565b60006020820190508181036000830152612d0781612ccb565b9050919050565b7f4f776e61626c653a206e6577206f776e657220697320746865207a65726f206160008201527f6464726573730000000000000000000000000000000000000000000000000000602082015250565b6000612d6a6026836120f0565b9150612d7582612d0e565b604082019050919050565b60006020820190508181036000830152612d9981612d5d565b9050919050565b7f4f776e61626c653a2063616c6c6572206973206e6f7420746865206f776e6572600082015250565b6000612dd66020836120f0565b9150612de182612da0565b602082019050919050565b60006020820190508181036000830152612e0581612dc9565b9050919050565b7f455243313135353a206d696e7420746f20746865207a65726f2061646472657360008201527f7300000000000000000000000000000000000000000000000000000000000000602082015250565b6000612e686021836120f0565b9150612e7382612e0c565b604082019050919050565b60006020820190508181036000830152612e9781612e5b565b9050919050565b6000604082019050612eb36000830185611e44565b612ec06020830184611e44565b9392505050565b7f455243313135353a2069647320616e6420616d6f756e7473206c656e6774682060008201527f6d69736d61746368000000000000000000000000000000000000000000000000602082015250565b6000612f236028836120f0565b9150612f2e82612ec7565b604082019050919050565b60006020820190508181036000830152612f5281612f16565b9050919050565b7f455243313135353a207472616e7366657220746f20746865207a65726f20616460008201527f6472657373000000000000000000000000000000000000000000000000000000602082015250565b6000612fb56025836120f0565b9150612fc082612f59565b604082019050919050565b60006020820190508181036000830152612fe481612fa8565b9050919050565b7f455243313135353a20696e73756666696369656e742062616c616e636520666f60008201527f72207472616e7366657200000000000000000000000000000000000000000000602082015250565b6000613047602a836120f0565b915061305282612feb565b604082019050919050565b600060208201905081810360008301526130768161303a565b9050919050565b6000604082019050818103600083015261309781856125a2565b905081810360208301526130ab81846125a2565b90509392505050565b7f455243313135353a2073657474696e6720617070726f76616c2073746174757360008201527f20666f722073656c660000000000000000000000000000000000000000000000602082015250565b60006131106029836120f0565b915061311b826130b4565b604082019050919050565b6000602082019050818103600083015261313f81613103565b9050919050565b600081519050919050565b600082825260208201905092915050565b600061316d82613146565b6131778185613151565b9350613187818560208601612101565b61319081611f33565b840191505092915050565b600060a0820190506131b06000830188612622565b6131bd6020830187612622565b6131ca6040830186611e44565b6131d76060830185611e44565b81810360808301526131e98184613162565b90509695505050505050565b60008151905061320481611e9a565b92915050565b6000602082840312156132205761321f611d66565b5b600061322e848285016131f5565b91505092915050565b60008160e01c9050919050565b600060033d11156132635760046000803e613260600051613237565b90505b90565b600060443d1015613276576132f9565b61327e611d5c565b60043d036004823e80513d602482011167ffffffffffffffff821117156132a65750506132f9565b808201805167ffffffffffffffff8111156132c457505050506132f9565b80602083010160043d0385018111156132e15750505050506132f9565b6132f082602001850186611f73565b82955050505050505b90565b7f455243313135353a207472616e7366657220746f206e6f6e2d4552433131353560008201527f526563656976657220696d706c656d656e746572000000000000000000000000602082015250565b60006133586034836120f0565b9150613363826132fc565b604082019050919050565b600060208201905081810360008301526133878161334b565b9050919050565b7f455243313135353a204552433131353552656365697665722072656a6563746560008201527f6420746f6b656e73000000000000000000000000000000000000000000000000602082015250565b60006133ea6028836120f0565b91506133f58261338e565b604082019050919050565b60006020820190508181036000830152613419816133dd565b9050919050565b600060a0820190506134356000830188612622565b6134426020830187612622565b818103604083015261345481866125a2565b9050818103606083015261346881856125a2565b9050818103608083015261347c8184613162565b9050969550505050505056fea2646970667358221220752eff33d17cd54fff8eb1d72943b9b5eca57e31946cc6fc5074ce4e46c055b864736f6c63430008090033",
  "linkReferences": {},
  "deployedLinkReferences": {}
}